:020000040800F2
:100000000810002031020008F70300088D030008E3
:10001000F303000879020008190600080000000038
:10002000000000000000000000000000390400088B
:100030007D02000800000000470200088905000852
:100040004B0200084B0200084B0200084B0200085C
:100050004B0200084B0200084B0200084B0200084C
:100060004B0200084B0200084B0200084B0200083C
:100070004B0200084B0200084B0200084B0200082C
:100080004B0200084B0200084B0200084B0200081C
:100090004B0200084B0200084B0200084B0200080C
:1000A0004B0200084B0200084B0200084B020008FC
:1000B0004B0200084B0200084B0200084B020008EC
:1000C0004B0200084B0200084B0200084B020008DC
:1000D0004B0200084B0200084B0200084B020008CC
:1000E0004B0200084B0200084B0200084B020008BC
:1000F0004B0200084B0200084B0200084B020008AC
:100100004B0200084B0200084B0200084B0200089B
:100110004B0200084B0200084B0200084B0200088B
:100120004B0200084B0200084B0200084B0200087B
:100130004B0200084B020008000000004B020008C0
:100140004B0200084B0200084B0200084B0200085B
:100150004B0200084B0200084B0200084B0200084B
:100160004B0200084B0200084B0200084B0200083B
:100170004B0200084B0200084B0200084B0200082B
:100180004B020008000000004B0200084B02000870
:100190004B0200084B0200084B0200084B0200080B
:1001A0004B0200084B0200080000000000000000A5
:1001B000000000000000000000000000000000003F
:1001C0000000000000000000000000004B020008DA
:1001D0004B0200084B0200084B0200084B020008CB
:1001E0004B0200084B0200084B0200084B020008BB
:1001F0004B0200084B0200084B0200084B020008AB
:100200004B0200084B0200084B0200084B0200089A
:100210004B0200084B020008DFF810D000F01AF87B
:10022000004800473D060008AFF30080081000209A
:100230000648804706480047FEE7FEE7FEE7FEE780
:10024000FEE7FEE7FEE7FEE7FEE7FEE78D050008B6
:1002500019020008064C074D06E0E06840F0010373
:1002600094E8070098471034AC42F6D3FFF7D8FF64
:10027000180700083807000800BFFEE77047002194
:1002800000E0491C8142FCD370470000F0B50346F2
:100290001F2A09D90F4F3F6827F4E03022F00047AA
:1002A00038430C4F386013E08E088F07FC0E0A4F5E
:1002B00007EB832505F10C0757F826001F27A740F9
:1002C000B84302FA04F7384305F10C0747F8260053
:1002D000F0BD00000008014000C00240F0B5024639
:1002E000002346E001279F40D1F800C00CEA070533
:1002F000002D3DD09E089F07FC0E02F10C0757F819
:1003000026001F27A740B8434F69A740384302F192
:100310000C0747F8260090680F7907F01007102F98
:1003200001D1284300E0A84390605C0010680327D7
:10033000A740B8430F7907F00307A7403843106080
:1003400050680327A740B8438F68A74038435060E0
:10035000106A01279F40B843CF689F40384310621E
:10036000D0690327A740B8430F69A7403843D0613D
:100370005B1C0F68DF40002FB4D1F0BD8162704775
:1003800041627047026B4A400263704700BFFEE75C
:1003900070B504460D4629462046FFF7F3FF70BDB1
:1003A00070B586B006460C4615460121284600F079
:1003B00023F8009400200390012001900020059074
:1003C00002900120049069463046FFF787FF06B08F
:1003D00070BD70B504460D4629462046FFF7CEFF96
:1003E00070BD70B504460D4629462046FFF7C8FF8C
:1003F00070BD00BFFEE7704729B1064AD26B0243C9
:10040000044BDA6304E0034AD26B8243014BDA63A4
:10041000704700000010024029B1064A126A0243E8
:10042000044B1A6204E0034A126A8243014B1A62C7
:1004300070470000001002407047000030B50146D0
:10044000214BDB6943F001031F4CE361A3041868EF
:1004500020F43870084318601B6843F01003A404AC
:100460002360002200E0521CB2F5FA6FFBD300BFFC
:100470004FF080435B6803F00403002BF8D100BF0A
:1004800000BF124C246844F08074104D2C6000248E
:100490000F4D6C602C46246844F001042C6000BFB2
:1004A0002C4664680B4D631900BF094C64689C427C
:1004B000FBD300BF054C246824F08074034D2C60EE
:1004C00000BF00BF30BD000000100240FCED00E0A6
:1004D000001000E080A90300284A106820F00700FF
:1004E00040F005001060264A5268254B5A601A46B3
:1004F000526842F480425A601A46526842F40062DE
:100500005A601A465068116C6FF308001D4A11407A
:1005100000BF40F0680000F4FC72502A03D846F295
:10052000403211430AE000F4FC72902A03D846F2EC
:100530004072114302E046F640421143104A5060B7
:100540001164126842F001020D4B1A6000BF0C4AA0
:10055000126802F00202002AF9D0094A506820F01D
:10056000406040F00060506000BF054A526802F0F1
:100570004072B2F1007FF8D17047000000200240C5
:10058000001002400F80F0FF7047000010B51D48BA
:10059000006840F470001B4908601B48006840F088
:1005A000040019490860084640681849084016497F
:1005B00048600846006820F0D1000860084640689E
:1005C0006FF3080048600846006C20F47C10086453
:1005D0004FF4E04088607120C8600D480861002039
:1005E00008630C48006840F090000A490860FFF773
:1005F00073FF4FF000600349803908608014FFF7F3
:100600001DFF10BD88ED00E000100240FF01F03337
:100610000000FF010020024000BFFEE702E008C822
:10062000121F08C1002AFAD170477047002001E06C
:1006300001C1121F002AFBD17047000001220821CE
:100640003248FFF7ADFE012211023048FFF7A8FE45
:10065000022210212E48FFF7A3FE002412E00821F9
:100660002A48FFF795FE4FF480712848FFF790FE67
:1006700010212748FFF78CFE26490968C808FFF7B4
:10068000FEFD641C082CEAD301210846FFF7C4FED6
:100690004FF0802200210846FFF7F8FD08211B4893
:1006A000FFF797FE4FF480711848FFF792FE102174
:1006B0001748FFF78EFE28E010211548FFF789FE46
:1006C00008211248FFF78DFE12490968C808FFF794
:1006D000D6FD08210D48FFF77CFE4FF480710B48D2
:1006E000FFF77FFE0B490968C808FFF7C8FD4FF404
:1006F00080710648FFF76DFE10210548FFF771FE77
:1007000004490968C808FFF7BAFDD5E700C00240F0
:1007100000C402400000002038070008000000204C
:10072000040000001C0600083C070008040000202C
:0C073000041000002C060008001C4E0EF7
:0400000508000219D4
:00000001FF
